{
  "contractName": "Auction",
  "abi": [
    {
      "anonymous": false,
      "inputs": [
        {
          "indexed": false,
          "internalType": "uint256",
          "name": "token_id",
          "type": "uint256"
        }
      ],
      "name": "newNFT",
      "type": "event"
    },
    {
      "stateMutability": "payable",
      "type": "fallback",
      "payable": true
    },
    {
      "inputs": [
        {
          "internalType": "uint256",
          "name": "",
          "type": "uint256"
        }
      ],
      "name": "Auc",
      "outputs": [
        {
          "internalType": "uint256",
          "name": "Auc_id",
          "type": "uint256"
        },
        {
          "internalType": "uint256",
          "name": "NFT_token_id",
          "type": "uint256"
        },
        {
          "internalType": "uint256",
          "name": "startTime",
          "type": "uint256"
        },
        {
          "internalType": "uint256",
          "name": "endTime",
          "type": "uint256"
        },
        {
          "internalType": "uint256",
          "name": "bid",
          "type": "uint256"
        },
        {
          "internalType": "address payable",
          "name": "receiver",
          "type": "address"
        },
        {
          "internalType": "address payable",
          "name": "sender",
          "type": "address"
        },
        {
          "internalType": "bool",
          "name": "isclaim",
          "type": "bool"
        }
      ],
      "stateMutability": "view",
      "type": "function",
      "constant": true
    },
    {
      "inputs": [],
      "name": "NFTCount",
      "outputs": [
        {
          "internalType": "uint256",
          "name": "",
          "type": "uint256"
        }
      ],
      "stateMutability": "view",
      "type": "function",
      "constant": true
    },
    {
      "inputs": [
        {
          "internalType": "uint256",
          "name": "",
          "type": "uint256"
        }
      ],
      "name": "NFTOwner",
      "outputs": [
        {
          "internalType": "address",
          "name": "",
          "type": "address"
        }
      ],
      "stateMutability": "view",
      "type": "function",
      "constant": true
    },
    {
      "inputs": [],
      "name": "balance",
      "outputs": [
        {
          "internalType": "uint256",
          "name": "",
          "type": "uint256"
        }
      ],
      "stateMutability": "view",
      "type": "function",
      "constant": true
    },
    {
      "inputs": [],
      "name": "createNFTFee",
      "outputs": [
        {
          "internalType": "uint256",
          "name": "",
          "type": "uint256"
        }
      ],
      "stateMutability": "view",
      "type": "function",
      "constant": true
    },
    {
      "inputs": [
        {
          "internalType": "uint256",
          "name": "",
          "type": "uint256"
        }
      ],
      "name": "getAucNum",
      "outputs": [
        {
          "internalType": "uint256",
          "name": "",
          "type": "uint256"
        }
      ],
      "stateMutability": "view",
      "type": "function",
      "constant": true
    },
    {
      "inputs": [],
      "name": "manager",
      "outputs": [
        {
          "internalType": "address payable",
          "name": "",
          "type": "address"
        }
      ],
      "stateMutability": "view",
      "type": "function",
      "constant": true
    },
    {
      "inputs": [
        {
          "internalType": "uint256",
          "name": "",
          "type": "uint256"
        }
      ],
      "name": "nft",
      "outputs": [
        {
          "internalType": "uint256",
          "name": "token_id",
          "type": "uint256"
        },
        {
          "internalType": "address",
          "name": "maker",
          "type": "address"
        },
        {
          "internalType": "uint256",
          "name": "createTime",
          "type": "uint256"
        },
        {
          "internalType": "string",
          "name": "URL",
          "type": "string"
        }
      ],
      "stateMutability": "view",
      "type": "function",
      "constant": true
    },
    {
      "inputs": [
        {
          "internalType": "address",
          "name": "",
          "type": "address"
        }
      ],
      "name": "ownNFTCount",
      "outputs": [
        {
          "internalType": "uint256",
          "name": "",
          "type": "uint256"
        }
      ],
      "stateMutability": "view",
      "type": "function",
      "constant": true
    },
    {
      "inputs": [
        {
          "internalType": "uint256",
          "name": "",
          "type": "uint256"
        }
      ],
      "name": "transferTime",
      "outputs": [
        {
          "internalType": "uint256",
          "name": "",
          "type": "uint256"
        }
      ],
      "stateMutability": "view",
      "type": "function",
      "constant": true
    },
    {
      "stateMutability": "payable",
      "type": "receive",
      "payable": true
    },
    {
      "inputs": [],
      "name": "getContractBalance",
      "outputs": [
        {
          "internalType": "uint256",
          "name": "",
          "type": "uint256"
        }
      ],
      "stateMutability": "nonpayable",
      "type": "function"
    },
    {
      "inputs": [],
      "name": "transderToContract",
      "outputs": [],
      "stateMutability": "payable",
      "type": "function",
      "payable": true
    },
    {
      "inputs": [
        {
          "internalType": "string",
          "name": "content",
          "type": "string"
        }
      ],
      "name": "createNFT",
      "outputs": [
        {
          "internalType": "bool",
          "name": "",
          "type": "bool"
        }
      ],
      "stateMutability": "payable",
      "type": "function",
      "payable": true
    },
    {
      "inputs": [
        {
          "internalType": "address",
          "name": "_owner",
          "type": "address"
        }
      ],
      "name": "getNFTByOwner",
      "outputs": [
        {
          "components": [
            {
              "internalType": "uint256",
              "name": "token_id",
              "type": "uint256"
            },
            {
              "internalType": "address",
              "name": "maker",
              "type": "address"
            },
            {
              "internalType": "uint256",
              "name": "createTime",
              "type": "uint256"
            },
            {
              "internalType": "string",
              "name": "URL",
              "type": "string"
            }
          ],
          "internalType": "struct Auction.NFT[]",
          "name": "",
          "type": "tuple[]"
        }
      ],
      "stateMutability": "view",
      "type": "function",
      "constant": true
    },
    {
      "inputs": [
        {
          "internalType": "uint256",
          "name": "token_id",
          "type": "uint256"
        }
      ],
      "name": "getNFTOwnerByID",
      "outputs": [
        {
          "internalType": "address",
          "name": "",
          "type": "address"
        }
      ],
      "stateMutability": "view",
      "type": "function",
      "constant": true
    },
    {
      "inputs": [
        {
          "internalType": "address",
          "name": "_owner",
          "type": "address"
        }
      ],
      "name": "getNFTBought",
      "outputs": [
        {
          "components": [
            {
              "internalType": "uint256",
              "name": "token_id",
              "type": "uint256"
            },
            {
              "internalType": "address",
              "name": "maker",
              "type": "address"
            },
            {
              "internalType": "uint256",
              "name": "createTime",
              "type": "uint256"
            },
            {
              "internalType": "string",
              "name": "URL",
              "type": "string"
            }
          ],
          "internalType": "struct Auction.NFT[]",
          "name": "",
          "type": "tuple[]"
        }
      ],
      "stateMutability": "view",
      "type": "function",
      "constant": true
    },
    {
      "inputs": [],
      "name": "getNFTMadeByMe",
      "outputs": [
        {
          "components": [
            {
              "internalType": "uint256",
              "name": "token_id",
              "type": "uint256"
            },
            {
              "internalType": "address",
              "name": "maker",
              "type": "address"
            },
            {
              "internalType": "uint256",
              "name": "createTime",
              "type": "uint256"
            },
            {
              "internalType": "string",
              "name": "URL",
              "type": "string"
            }
          ],
          "internalType": "struct Auction.NFT[]",
          "name": "",
          "type": "tuple[]"
        }
      ],
      "stateMutability": "view",
      "type": "function",
      "constant": true
    },
    {
      "inputs": [
        {
          "internalType": "uint256",
          "name": "_token_id",
          "type": "uint256"
        }
      ],
      "name": "isExist",
      "outputs": [
        {
          "internalType": "bool",
          "name": "",
          "type": "bool"
        }
      ],
      "stateMutability": "view",
      "type": "function",
      "constant": true
    },
    {
      "inputs": [],
      "name": "myAuction",
      "outputs": [
        {
          "components": [
            {
              "internalType": "uint256",
              "name": "Auc_id",
              "type": "uint256"
            },
            {
              "internalType": "uint256",
              "name": "NFT_token_id",
              "type": "uint256"
            },
            {
              "internalType": "uint256",
              "name": "startTime",
              "type": "uint256"
            },
            {
              "internalType": "uint256",
              "name": "endTime",
              "type": "uint256"
            },
            {
              "internalType": "uint256",
              "name": "bid",
              "type": "uint256"
            },
            {
              "internalType": "address payable",
              "name": "receiver",
              "type": "address"
            },
            {
              "internalType": "address payable",
              "name": "sender",
              "type": "address"
            },
            {
              "internalType": "bool",
              "name": "isclaim",
              "type": "bool"
            }
          ],
          "internalType": "struct Auction.AUC[]",
          "name": "",
          "type": "tuple[]"
        }
      ],
      "stateMutability": "view",
      "type": "function",
      "constant": true
    },
    {
      "inputs": [
        {
          "internalType": "uint256",
          "name": "_NFT_token_id",
          "type": "uint256"
        },
        {
          "internalType": "uint256",
          "name": "_endTime",
          "type": "uint256"
        },
        {
          "internalType": "uint256",
          "name": "_startPrice",
          "type": "uint256"
        }
      ],
      "name": "setupAuction",
      "outputs": [],
      "stateMutability": "payable",
      "type": "function",
      "payable": true
    },
    {
      "inputs": [
        {
          "internalType": "uint256",
          "name": "_NFT_id",
          "type": "uint256"
        }
      ],
      "name": "Belong",
      "outputs": [
        {
          "internalType": "address[]",
          "name": "",
          "type": "address[]"
        }
      ],
      "stateMutability": "view",
      "type": "function",
      "constant": true
    },
    {
      "inputs": [],
      "name": "getUnclaim",
      "outputs": [
        {
          "components": [
            {
              "internalType": "uint256",
              "name": "Auc_id",
              "type": "uint256"
            },
            {
              "internalType": "uint256",
              "name": "NFT_token_id",
              "type": "uint256"
            },
            {
              "internalType": "uint256",
              "name": "startTime",
              "type": "uint256"
            },
            {
              "internalType": "uint256",
              "name": "endTime",
              "type": "uint256"
            },
            {
              "internalType": "uint256",
              "name": "bid",
              "type": "uint256"
            },
            {
              "internalType": "address payable",
              "name": "receiver",
              "type": "address"
            },
            {
              "internalType": "address payable",
              "name": "sender",
              "type": "address"
            },
            {
              "internalType": "bool",
              "name": "isclaim",
              "type": "bool"
            }
          ],
          "internalType": "struct Auction.AUC[]",
          "name": "",
          "type": "tuple[]"
        }
      ],
      "stateMutability": "view",
      "type": "function",
      "constant": true
    },
    {
      "inputs": [],
      "name": "getAuction",
      "outputs": [
        {
          "components": [
            {
              "internalType": "uint256",
              "name": "Auc_id",
              "type": "uint256"
            },
            {
              "internalType": "uint256",
              "name": "NFT_token_id",
              "type": "uint256"
            },
            {
              "internalType": "uint256",
              "name": "startTime",
              "type": "uint256"
            },
            {
              "internalType": "uint256",
              "name": "endTime",
              "type": "uint256"
            },
            {
              "internalType": "uint256",
              "name": "bid",
              "type": "uint256"
            },
            {
              "internalType": "address payable",
              "name": "receiver",
              "type": "address"
            },
            {
              "internalType": "address payable",
              "name": "sender",
              "type": "address"
            },
            {
              "internalType": "bool",
              "name": "isclaim",
              "type": "bool"
            }
          ],
          "internalType": "struct Auction.AUC[]",
          "name": "",
          "type": "tuple[]"
        }
      ],
      "stateMutability": "view",
      "type": "function",
      "constant": true
    },
    {
      "inputs": [],
      "name": "myNFTInAuction",
      "outputs": [
        {
          "components": [
            {
              "internalType": "uint256",
              "name": "Auc_id",
              "type": "uint256"
            },
            {
              "internalType": "uint256",
              "name": "NFT_token_id",
              "type": "uint256"
            },
            {
              "internalType": "uint256",
              "name": "startTime",
              "type": "uint256"
            },
            {
              "internalType": "uint256",
              "name": "endTime",
              "type": "uint256"
            },
            {
              "internalType": "uint256",
              "name": "bid",
              "type": "uint256"
            },
            {
              "internalType": "address payable",
              "name": "receiver",
              "type": "address"
            },
            {
              "internalType": "address payable",
              "name": "sender",
              "type": "address"
            },
            {
              "internalType": "bool",
              "name": "isclaim",
              "type": "bool"
            }
          ],
          "internalType": "struct Auction.AUC[]",
          "name": "",
          "type": "tuple[]"
        }
      ],
      "stateMutability": "view",
      "type": "function",
      "constant": true
    },
    {
      "inputs": [
        {
          "internalType": "uint256",
          "name": "_Auc_id",
          "type": "uint256"
        }
      ],
      "name": "claim",
      "outputs": [],
      "stateMutability": "payable",
      "type": "function",
      "payable": true
    },
    {
      "inputs": [
        {
          "internalType": "address payable",
          "name": "to",
          "type": "address"
        },
        {
          "internalType": "uint256",
          "name": "value",
          "type": "uint256"
        }
      ],
      "name": "transferEther",
      "outputs": [],
      "stateMutability": "payable",
      "type": "function",
      "payable": true
    },
    {
      "inputs": [
        {
          "internalType": "uint256",
          "name": "_Auc_id",
          "type": "uint256"
        },
        {
          "internalType": "uint256",
          "name": "price",
          "type": "uint256"
        }
      ],
      "name": "bid",
      "outputs": [],
      "stateMutability": "payable",
      "type": "function",
      "payable": true
    }
  ],
  "bytecode": "0x608060405267016345785d8a0000600055600060015567016345785d8a000060095534801561002d57600080fd5b506146728061003d6000396000f3fe6080604052600436106101a05760003560e01c8063b69ef8a8116100ec578063da2ed03e1161008a578063eac823c711610064578063eac823c7146105fb578063ee71354314610617578063ef3ceae214610654578063fea3b9c31461067f576101a7565b8063da2ed03e14610551578063ddff441614610581578063e0c53123146105be576101a7565b8063cb0c14c4116100c6578063cb0c14c414610481578063cb7728ea146104be578063d03711dc146104e9578063d51fe9cb14610514576101a7565b8063b69ef8a8146103ee578063ca8f8ff314610419578063caabe24914610456576101a7565b8063598647f8116101595780637327df25116101335780637327df2514610309578063893a41e4146103345780639d0214cb14610371578063aaf77b71146103b1576101a7565b8063598647f81461027e5780635e8b807f1461029a5780636f9fb98a146102de576101a7565b806305b1137b146101a9578063126dc00f146101c5578063379607f514610202578063460968dd1461021e578063481c6a75146102285780635940009114610253576101a7565b366101a757005b005b6101c360048036038101906101be9190613b96565b6106aa565b005b3480156101d157600080fd5b506101ec60048036038101906101e79190613c13565b6106f5565b6040516101f99190614105565b60405180910390f35b61021c60048036038101906102179190613c13565b61070d565b005b610226610d69565b005b34801561023457600080fd5b5061023d610db2565b60405161024a9190614047565b60405180910390f35b34801561025f57600080fd5b50610268610dd8565b60405161027591906140a6565b60405180910390f35b61029860048036038101906102939190613c3c565b611105565b005b3480156102a657600080fd5b506102c160048036038101906102bc9190613c13565b61156c565b6040516102d59897969594939291906141b1565b60405180910390f35b3480156102ea57600080fd5b506102f3611611565b6040516103009190614105565b60405180910390f35b34801561031557600080fd5b5061031e611661565b60405161032b9190614084565b60405180910390f35b34801561034057600080fd5b5061035b60048036038101906103569190613c13565b611906565b6040516103689190614062565b60405180910390f35b34801561037d57600080fd5b5061039860048036038101906103939190613c13565b611bc4565b6040516103a89493929190614120565b60405180910390f35b3480156103bd57600080fd5b506103d860048036038101906103d39190613c13565b611cac565b6040516103e59190614105565b60405180910390f35b3480156103fa57600080fd5b50610403611cc4565b6040516104109190614105565b60405180910390f35b34801561042557600080fd5b50610440600480360381019061043b9190613c13565b611cca565b60405161044d91906140c8565b60405180910390f35b34801561046257600080fd5b5061046b611d5a565b6040516104789190614084565b60405180910390f35b34801561048d57600080fd5b506104a860048036038101906104a39190613b6d565b6120a1565b6040516104b591906140a6565b60405180910390f35b3480156104ca57600080fd5b506104d3612398565b6040516104e09190614105565b60405180910390f35b3480156104f557600080fd5b506104fe61239e565b60405161050b9190614084565b60405180910390f35b34801561052057600080fd5b5061053b60048036038101906105369190613c13565b612788565b604051610548919061402c565b60405180910390f35b61056b60048036038101906105669190613bd2565b6127bb565b60405161057891906140c8565b60405180910390f35b34801561058d57600080fd5b506105a860048036038101906105a39190613b6d565b612acc565b6040516105b59190614105565b60405180910390f35b3480156105ca57600080fd5b506105e560048036038101906105e09190613b6d565b612ae4565b6040516105f291906140a6565b60405180910390f35b61061560048036038101906106109190613c78565b612e7e565b005b34801561062357600080fd5b5061063e60048036038101906106399190613c13565b6132c3565b60405161064b919061402c565b60405180910390f35b34801561066057600080fd5b50610669613318565b6040516106769190614084565b60405180910390f35b34801561068b57600080fd5b50610694613643565b6040516106a19190614105565b60405180910390f35b8173ffffffffffffffffffffffffffffffffffffffff166108fc829081150290604051600060405180830381858888f193505050501580156106f0573d6000803e3d6000fd5b505050565b600b6020528060005260406000206000915090505481565b6000600b6000838152602001908152602001600020549050600a818154811061075f577f4e487b7100000000000000000000000000000000000000000000000000000000600052603260045260246000fd5b906000526020600020906007020160040154341461077c57600080fd5b600a81815481106107b6577f4e487b7100000000000000000000000000000000000000000000000000000000600052603260045260246000fd5b906000526020600020906007020160050160009054906101000a900473ffffffffffffffffffffffffffffffffffffffff1673ffffffffffffffffffffffffffffffffffffffff163373ffffffffffffffffffffffffffffffffffffffff161461081f57600080fd5b600a8181548110610859577f4e487b7100000000000000000000000000000000000000000000000000000000600052603260045260246000fd5b90600052602060002090600702016003015442101561087757600080fd5b60001515600a82815481106108b5577f4e487b7100000000000000000000000000000000000000000000000000000000600052603260045260246000fd5b906000526020600020906007020160060160149054906101000a900460ff161515146108e057600080fd5b600060076000600a8481548110610920577f4e487b7100000000000000000000000000000000000000000000000000000000600052603260045260246000fd5b9060005260206000209060070201600101548152602001908152602001600020549050600660006005600084815260200190815260200160002060009054906101000a900473ffffffffffffffffffffffffffffffffffffffff1673ffffffffffffffffffffffffffffffffffffffff1673ffffffffffffffffffffffffffffffffffffffff16815260200190815260200160002060008154809291906109c690614483565b9190505550336005600083815260200190815260200160002060006101000a81548173ffffffffffffffffffffffffffffffffffffffff021916908373ffffffffffffffffffffffffffffffffffffffff160217905550600d60003373ffffffffffffffffffffffffffffffffffffffff1673ffffffffffffffffffffffffffffffffffffffff1681526020019081526020016000206000815480929190610a6d90614510565b9190505550600660006005600084815260200190815260200160002060009054906101000a900473ffffffffffffffffffffffffffffffffffffffff1673ffffffffffffffffffffffffffffffffffffffff1673ffffffffffffffffffffffffffffffffffffffff1681526020019081526020016000206000815480929190610af590614510565b91905055506001600a8381548110610b36577f4e487b7100000000000000000000000000000000000000000000000000000000600052603260045260246000fd5b906000526020600020906007020160060160146101000a81548160ff021916908315150217905550600e60003373ffffffffffffffffffffffffffffffffffffffff1673ffffffffffffffffffffffffffffffffffffffff1681526020019081526020016000206000815480929190610bae90614483565b9190505550600c6000600a8481548110610bf1577f4e487b7100000000000000000000000000000000000000000000000000000000600052603260045260246000fd5b90600052602060002090600702016001015481526020019081526020016000206000815480929190610c2290614510565b9190505550600060106000600a8581548110610c67577f4e487b7100000000000000000000000000000000000000000000000000000000600052603260045260246000fd5b906000526020600020906007020160010154815260200190815260200160002060006101000a81548160ff0219169083151502179055506000600a8381548110610cda577f4e487b7100000000000000000000000000000000000000000000000000000000600052603260045260246000fd5b906000526020600020906007020160060160009054906101000a900473ffffffffffffffffffffffffffffffffffffffff169050610d6381600a8581548110610d4c577f4e487b7100000000000000000000000000000000000000000000000000000000600052603260045260246000fd5b9060005260206000209060070201600401546106aa565b50505050565b3073ffffffffffffffffffffffffffffffffffffffff166108fc349081150290604051600060405180830381858888f19350505050158015610daf573d6000803e3d6000fd5b50565b600260009054906101000a900473ffffffffffffffffffffffffffffffffffffffff1681565b60606000600860003373ffffffffffffffffffffffffffffffffffffffff1673ffffffffffffffffffffffffffffffffffffffff1681526020019081526020016000205467ffffffffffffffff811115610e5b577f4e487b7100000000000000000000000000000000000000000000000000000000600052604160045260246000fd5b604051908082528060200260200182016040528015610e9457816020015b610e81613972565b815260200190600190039081610e795790505b5090506000805b6004805490508110156110fc573373ffffffffffffffffffffffffffffffffffffffff1660048281548110610ef9577f4e487b7100000000000000000000000000000000000000000000000000000000600052603260045260246000fd5b906000526020600020906004020160010160009054906101000a900473ffffffffffffffffffffffffffffffffffffffff1673ffffffffffffffffffffffffffffffffffffffff1614156110e95760048181548110610f81577f4e487b7100000000000000000000000000000000000000000000000000000000600052603260045260246000fd5b9060005260206000209060040201604051806080016040529081600082015481526020016001820160009054906101000a900473ffffffffffffffffffffffffffffffffffffffff1673ffffffffffffffffffffffffffffffffffffffff1673ffffffffffffffffffffffffffffffffffffffff16815260200160028201548152602001600382018054611014906144ad565b80601f0160208091040260200160405190810160405280929190818152602001828054611040906144ad565b801561108d5780601f106110625761010080835404028352916020019161108d565b820191906000526020600020905b81548152906001019060200180831161107057829003601f168201915b5050505050815250508383815181106110cf577f4e487b7100000000000000000000000000000000000000000000000000000000600052603260045260246000fd5b602002602001018190525081806110e590614510565b9250505b80806110f490614510565b915050610e9b565b50819250505090565b6000600b6000848152602001908152602001600020549050600a8181548110611157577f4e487b7100000000000000000000000000000000000000000000000000000000600052603260045260246000fd5b906000526020600020906007020160040154821161117457600080fd5b600a81815481106111ae577f4e487b7100000000000000000000000000000000000000000000000000000000600052603260045260246000fd5b906000526020600020906007020160060160009054906101000a900473ffffffffffffffffffffffffffffffffffffffff1673ffffffffffffffffffffffffffffffffffffffff163373ffffffffffffffffffffffffffffffffffffffff16141561121857600080fd5b60001515600a8281548110611256577f4e487b7100000000000000000000000000000000000000000000000000000000600052603260045260246000fd5b906000526020600020906007020160060160149054906101000a900460ff1615151461128157600080fd5b42600a82815481106112bc577f4e487b7100000000000000000000000000000000000000000000000000000000600052603260045260246000fd5b906000526020600020906007020160030154116112d857600080fd5b600073ffffffffffffffffffffffffffffffffffffffff16600a828154811061132a577f4e487b7100000000000000000000000000000000000000000000000000000000600052603260045260246000fd5b906000526020600020906007020160050160009054906101000a900473ffffffffffffffffffffffffffffffffffffffff1673ffffffffffffffffffffffffffffffffffffffff161461143857600e6000600a83815481106113b5577f4e487b7100000000000000000000000000000000000000000000000000000000600052603260045260246000fd5b906000526020600020906007020160050160009054906101000a900473ffffffffffffffffffffffffffffffffffffffff1673ffffffffffffffffffffffffffffffffffffffff1673ffffffffffffffffffffffffffffffffffffffff168152602001908152602001600020600081548092919061143290614483565b91905055505b600e60003373ffffffffffffffffffffffffffffffffffffffff1673ffffffffffffffffffffffffffffffffffffffff168152602001908152602001600020600081548092919061148890614510565b919050555081600a82815481106114c8577f4e487b7100000000000000000000000000000000000000000000000000000000600052603260045260246000fd5b90600052602060002090600702016004018190555033600a8281548110611518577f4e487b7100000000000000000000000000000000000000000000000000000000600052603260045260246000fd5b906000526020600020906007020160050160006101000a81548173ffffffffffffffffffffffffffffffffffffffff021916908373ffffffffffffffffffffffffffffffffffffffff160217905550505050565b600a818154811061157c57600080fd5b90600052602060002090600702016000915090508060000154908060010154908060020154908060030154908060040154908060050160009054906101000a900473ffffffffffffffffffffffffffffffffffffffff16908060060160009054906101000a900473ffffffffffffffffffffffffffffffffffffffff16908060060160149054906101000a900460ff16905088565b600030600260006101000a81548173ffffffffffffffffffffffffffffffffffffffff021916908373ffffffffffffffffffffffffffffffffffffffff1602179055504760038190555047905090565b60606000600a8054905067ffffffffffffffff8111156116aa577f4e487b7100000000000000000000000000000000000000000000000000000000600052604160045260246000fd5b6040519080825280602002602001820160405280156116e357816020015b6116d06139b0565b8152602001906001900390816116c85790505b5090506000805b600a805490508110156118fd57600a8181548110611731577f4e487b7100000000000000000000000000000000000000000000000000000000600052603260045260246000fd5b9060005260206000209060070201600301544210156118ea57600a8181548110611784577f4e487b7100000000000000000000000000000000000000000000000000000000600052603260045260246000fd5b90600052602060002090600702016040518061010001604052908160008201548152602001600182015481526020016002820154815260200160038201548152602001600482015481526020016005820160009054906101000a900473ffffffffffffffffffffffffffffffffffffffff1673ffffffffffffffffffffffffffffffffffffffff1673ffffffffffffffffffffffffffffffffffffffff1681526020016006820160009054906101000a900473ffffffffffffffffffffffffffffffffffffffff1673ffffffffffffffffffffffffffffffffffffffff1673ffffffffffffffffffffffffffffffffffffffff1681526020016006820160149054906101000a900460ff1615151515815250508383815181106118d0577f4e487b7100000000000000000000000000000000000000000000000000000000600052603260045260246000fd5b602002602001018190525081806118e690614510565b9250505b80806118f590614510565b9150506116ea565b50819250505090565b606060006001600c60008581526020019081526020016000205461192a919061435d565b67ffffffffffffffff811115611969577f4e487b7100000000000000000000000000000000000000000000000000000000600052604160045260246000fd5b6040519080825280602002602001820160405280156119975781602001602082028036833780820191505090505b5090506000805b600a80549050811015611aff5784600a82815481106119e6577f4e487b7100000000000000000000000000000000000000000000000000000000600052603260045260246000fd5b9060005260206000209060070201600101541415611aec57600a8181548110611a38577f4e487b7100000000000000000000000000000000000000000000000000000000600052603260045260246000fd5b906000526020600020906007020160060160009054906101000a900473ffffffffffffffffffffffffffffffffffffffff16838381518110611aa3577f4e487b7100000000000000000000000000000000000000000000000000000000600052603260045260246000fd5b602002602001019073ffffffffffffffffffffffffffffffffffffffff16908173ffffffffffffffffffffffffffffffffffffffff16815250508180611ae890614510565b9250505b8080611af790614510565b91505061199e565b50600560006007600087815260200190815260200160002054815260200190815260200160002060009054906101000a900473ffffffffffffffffffffffffffffffffffffffff16828281518110611b80577f4e487b7100000000000000000000000000000000000000000000000000000000600052603260045260246000fd5b602002602001019073ffffffffffffffffffffffffffffffffffffffff16908173ffffffffffffffffffffffffffffffffffffffff16815250508192505050919050565b60048181548110611bd457600080fd5b90600052602060002090600402016000915090508060000154908060010160009054906101000a900473ffffffffffffffffffffffffffffffffffffffff1690806002015490806003018054611c29906144ad565b80601f0160208091040260200160405190810160405280929190818152602001828054611c55906144ad565b8015611ca25780601f10611c7757610100808354040283529160200191611ca2565b820191906000526020600020905b815481529060010190602001808311611c8557829003601f168201915b5050505050905084565b600c6020528060005260406000206000915090505481565b60035481565b600080600090505b600480549050811015611d4f5760048181548110611d19577f4e487b7100000000000000000000000000000000000000000000000000000000600052603260045260246000fd5b906000526020600020906004020160000154831415611d3c576001915050611d55565b8080611d4790614510565b915050611cd2565b50600090505b919050565b60606000600a8054905067ffffffffffffffff811115611da3577f4e487b7100000000000000000000000000000000000000000000000000000000600052604160045260246000fd5b604051908082528060200260200182016040528015611ddc57816020015b611dc96139b0565b815260200190600190039081611dc15790505b5090506000805b600a8054905081101561209857600a8181548110611e2a577f4e487b7100000000000000000000000000000000000000000000000000000000600052603260045260246000fd5b90600052602060002090600702016003015442108015611ee057503373ffffffffffffffffffffffffffffffffffffffff16600a8281548110611e96577f4e487b7100000000000000000000000000000000000000000000000000000000600052603260045260246000fd5b906000526020600020906007020160060160009054906101000a900473ffffffffffffffffffffffffffffffffffffffff1673ffffffffffffffffffffffffffffffffffffffff16145b1561208557600a8181548110611f1f577f4e487b7100000000000000000000000000000000000000000000000000000000600052603260045260246000fd5b90600052602060002090600702016040518061010001604052908160008201548152602001600182015481526020016002820154815260200160038201548152602001600482015481526020016005820160009054906101000a900473ffffffffffffffffffffffffffffffffffffffff1673ffffffffffffffffffffffffffffffffffffffff1673ffffffffffffffffffffffffffffffffffffffff1681526020016006820160009054906101000a900473ffffffffffffffffffffffffffffffffffffffff1673ffffffffffffffffffffffffffffffffffffffff1673ffffffffffffffffffffffffffffffffffffffff1681526020016006820160149054906101000a900460ff16151515158152505083838151811061206b577f4e487b7100000000000000000000000000000000000000000000000000000000600052603260045260246000fd5b6020026020010181905250818061208190614510565b9250505b808061209090614510565b915050611de3565b50819250505090565b60606000600660008473ffffffffffffffffffffffffffffffffffffffff1673ffffffffffffffffffffffffffffffffffffffff1681526020019081526020016000205467ffffffffffffffff811115612124577f4e487b7100000000000000000000000000000000000000000000000000000000600052604160045260246000fd5b60405190808252806020026020018201604052801561215d57816020015b61214a613972565b8152602001906001900390816121425790505b5090506000805b60048054905081101561238d578473ffffffffffffffffffffffffffffffffffffffff166005600083815260200190815260200160002060009054906101000a900473ffffffffffffffffffffffffffffffffffffffff1673ffffffffffffffffffffffffffffffffffffffff16141561237a5760048181548110612212577f4e487b7100000000000000000000000000000000000000000000000000000000600052603260045260246000fd5b9060005260206000209060040201604051806080016040529081600082015481526020016001820160009054906101000a900473ffffffffffffffffffffffffffffffffffffffff1673ffffffffffffffffffffffffffffffffffffffff1673ffffffffffffffffffffffffffffffffffffffff168152602001600282015481526020016003820180546122a5906144ad565b80601f01602080910402602001604051908101604052809291908181526020018280546122d1906144ad565b801561231e5780601f106122f35761010080835404028352916020019161231e565b820191906000526020600020905b81548152906001019060200180831161230157829003601f168201915b505050505081525050838381518110612360577f4e487b7100000000000000000000000000000000000000000000000000000000600052603260045260246000fd5b6020026020010181905250818061237690614510565b9250505b808061238590614510565b915050612164565b508192505050919050565b60015481565b60606000600e60003373ffffffffffffffffffffffffffffffffffffffff1673ffffffffffffffffffffffffffffffffffffffff1681526020019081526020016000205467ffffffffffffffff811115612421577f4e487b7100000000000000000000000000000000000000000000000000000000600052604160045260246000fd5b60405190808252806020026020018201604052801561245a57816020015b6124476139b0565b81526020019060019003908161243f5790505b5090506000805b600a8054905081101561277f573373ffffffffffffffffffffffffffffffffffffffff16600a82815481106124bf577f4e487b7100000000000000000000000000000000000000000000000000000000600052603260045260246000fd5b906000526020600020906007020160050160009054906101000a900473ffffffffffffffffffffffffffffffffffffffff1673ffffffffffffffffffffffffffffffffffffffff16148015612570575060001515600a828154811061254d577f4e487b7100000000000000000000000000000000000000000000000000000000600052603260045260246000fd5b906000526020600020906007020160060160149054906101000a900460ff161515145b80156125c75750600a81815481106125b1577f4e487b7100000000000000000000000000000000000000000000000000000000600052603260045260246000fd5b9060005260206000209060070201600301544210155b1561276c57600a8181548110612606577f4e487b7100000000000000000000000000000000000000000000000000000000600052603260045260246000fd5b90600052602060002090600702016040518061010001604052908160008201548152602001600182015481526020016002820154815260200160038201548152602001600482015481526020016005820160009054906101000a900473ffffffffffffffffffffffffffffffffffffffff1673ffffffffffffffffffffffffffffffffffffffff1673ffffffffffffffffffffffffffffffffffffffff1681526020016006820160009054906101000a900473ffffffffffffffffffffffffffffffffffffffff1673ffffffffffffffffffffffffffffffffffffffff1673ffffffffffffffffffffffffffffffffffffffff1681526020016006820160149054906101000a900460ff161515151581525050838381518110612752577f4e487b7100000000000000000000000000000000000000000000000000000000600052603260045260246000fd5b6020026020010181905250818061276890614510565b9250505b808061277790614510565b915050612461565b50819250505090565b60056020528060005260406000206000915054906101000a900473ffffffffffffffffffffffffffffffffffffffff1681565b600067016345785d8a000034146127d157600080fd5b6000826040516020016127e491906140e3565b6040516020818303038152906040528051906020012060001c90506000151561280c82611cca565b15151461281857600080fd5b600061282382611cca565b15612832578092505050612ac7565b600460405180608001604052808481526020013373ffffffffffffffffffffffffffffffffffffffff1681526020014281526020016040518060400160405280600181526020017f300000000000000000000000000000000000000000000000000000000000000081525081525090806001815401808255809150506001900390600052602060002090600402016000909190919091506000820151816000015560208201518160010160006101000a81548173ffffffffffffffffffffffffffffffffffffffff021916908373ffffffffffffffffffffffffffffffffffffffff160217905550604082015181600201556060820151816003019080519060200190612940929190613a23565b5050506000600160048054905061295791906143b3565b9050336005600083815260200190815260200160002060006101000a81548173ffffffffffffffffffffffffffffffffffffffff021916908373ffffffffffffffffffffffffffffffffffffffff160217905550600660003373ffffffffffffffffffffffffffffffffffffffff1673ffffffffffffffffffffffffffffffffffffffff16815260200190815260200160002060008154809291906129fb90614510565b9190505550806007600085815260200190815260200160002081905550600860003373ffffffffffffffffffffffffffffffffffffffff1673ffffffffffffffffffffffffffffffffffffffff1681526020019081526020016000206000815480929190612a6890614510565b919050555060016000815480929190612a8090614510565b9190505550600191507fa8723e20e097caafa6b1346e6a64822180026eb131234c5af3c744d4d92e610183604051612ab89190614105565b60405180910390a18193505050505b919050565b60066020528060005260406000206000915090505481565b60606000600d60008473ffffffffffffffffffffffffffffffffffffffff1673ffffffffffffffffffffffffffffffffffffffff1681526020019081526020016000205467ffffffffffffffff811115612b67577f4e487b7100000000000000000000000000000000000000000000000000000000600052604160045260246000fd5b604051908082528060200260200182016040528015612ba057816020015b612b8d613972565b815260200190600190039081612b855790505b5090506000805b600480549050811015612e73578473ffffffffffffffffffffffffffffffffffffffff166005600083815260200190815260200160002060009054906101000a900473ffffffffffffffffffffffffffffffffffffffff1673ffffffffffffffffffffffffffffffffffffffff16148015612cb957503373ffffffffffffffffffffffffffffffffffffffff1660048281548110612c6e577f4e487b7100000000000000000000000000000000000000000000000000000000600052603260045260246000fd5b906000526020600020906004020160010160009054906101000a900473ffffffffffffffffffffffffffffffffffffffff1673ffffffffffffffffffffffffffffffffffffffff1614155b15612e605760048181548110612cf8577f4e487b7100000000000000000000000000000000000000000000000000000000600052603260045260246000fd5b9060005260206000209060040201604051806080016040529081600082015481526020016001820160009054906101000a900473ffffffffffffffffffffffffffffffffffffffff1673ffffffffffffffffffffffffffffffffffffffff1673ffffffffffffffffffffffffffffffffffffffff16815260200160028201548152602001600382018054612d8b906144ad565b80601f0160208091040260200160405190810160405280929190818152602001828054612db7906144ad565b8015612e045780601f10612dd957610100808354040283529160200191612e04565b820191906000526020600020905b815481529060010190602001808311612de757829003601f168201915b505050505081525050838381518110612e46577f4e487b7100000000000000000000000000000000000000000000000000000000600052603260045260246000fd5b60200260200101819052508180612e5c90614510565b9250505b8080612e6b90614510565b915050612ba7565b508192505050919050565b60011515612e8b84613649565b151514612e9757600080fd5b60011515612ea4846138a4565b151514612eb057600080fd5b6000600660003373ffffffffffffffffffffffffffffffffffffffff1673ffffffffffffffffffffffffffffffffffffffff1681526020019081526020016000205411612efc57600080fd5b428211612f0857600080fd5b6000429050600042828587604051602001612f26949392919061416c565b6040516020818303038152906040528051906020012060001c9050600a604051806101000160405280838152602001878152602001848152602001868152602001858152602001600073ffffffffffffffffffffffffffffffffffffffff1681526020013373ffffffffffffffffffffffffffffffffffffffff168152602001600015158152509080600181540180825580915050600190039060005260206000209060070201600090919091909150600082015181600001556020820151816001015560408201518160020155606082015181600301556080820151816004015560a08201518160050160006101000a81548173ffffffffffffffffffffffffffffffffffffffff021916908373ffffffffffffffffffffffffffffffffffffffff16021790555060c08201518160060160006101000a81548173ffffffffffffffffffffffffffffffffffffffff021916908373ffffffffffffffffffffffffffffffffffffffff16021790555060e08201518160060160146101000a81548160ff021916908315150217905550505060006001600a805490506130cc91906143b3565b905080600b60008481526020019081526020016000208190555060016010600088815260200190815260200160002060006101000a81548160ff021916908315150217905550600f60003373ffffffffffffffffffffffffffffffffffffffff1673ffffffffffffffffffffffffffffffffffffffff168152602001908152602001600020600081548092919061316290614510565b91905055506000600d60003373ffffffffffffffffffffffffffffffffffffffff1673ffffffffffffffffffffffffffffffffffffffff1681526020019081526020016000205411801561326057503373ffffffffffffffffffffffffffffffffffffffff166004600760008981526020019081526020016000205481548110613215577f4e487b7100000000000000000000000000000000000000000000000000000000600052603260045260246000fd5b906000526020600020906004020160010160009054906101000a900473ffffffffffffffffffffffffffffffffffffffff1673ffffffffffffffffffffffffffffffffffffffff1614155b156132bb57600d60003373ffffffffffffffffffffffffffffffffffffffff1673ffffffffffffffffffffffffffffffffffffffff16815260200190815260200160002060008154809291906132b590614483565b91905055505b505050505050565b600080600560006007600086815260200190815260200160002054815260200190815260200160002060009054906101000a900473ffffffffffffffffffffffffffffffffffffffff16905080915050919050565b60606000600f60003373ffffffffffffffffffffffffffffffffffffffff1673ffffffffffffffffffffffffffffffffffffffff1681526020019081526020016000205467ffffffffffffffff81111561339b577f4e487b7100000000000000000000000000000000000000000000000000000000600052604160045260246000fd5b6040519080825280602002602001820160405280156133d457816020015b6133c16139b0565b8152602001906001900390816133b95790505b5090506000805b600a8054905081101561363a573373ffffffffffffffffffffffffffffffffffffffff16600a8281548110613439577f4e487b7100000000000000000000000000000000000000000000000000000000600052603260045260246000fd5b906000526020600020906007020160060160009054906101000a900473ffffffffffffffffffffffffffffffffffffffff1673ffffffffffffffffffffffffffffffffffffffff16141561362757600a81815481106134c1577f4e487b7100000000000000000000000000000000000000000000000000000000600052603260045260246000fd5b90600052602060002090600702016040518061010001604052908160008201548152602001600182015481526020016002820154815260200160038201548152602001600482015481526020016005820160009054906101000a900473ffffffffffffffffffffffffffffffffffffffff1673ffffffffffffffffffffffffffffffffffffffff1673ffffffffffffffffffffffffffffffffffffffff1681526020016006820160009054906101000a900473ffffffffffffffffffffffffffffffffffffffff1673ffffffffffffffffffffffffffffffffffffffff1673ffffffffffffffffffffffffffffffffffffffff1681526020016006820160149054906101000a900460ff16151515158152505083838151811061360d577f4e487b7100000000000000000000000000000000000000000000000000000000600052603260045260246000fd5b6020026020010181905250818061362390614510565b9250505b808061363290614510565b9150506133db565b50819250505090565b60005481565b600080600015156010600085815260200190815260200160002060009054906101000a900460ff161515141561368357600191505061389f565b6001600a8054905061369591906143b3565b90505b600081106138995782600a82815481106136db577f4e487b7100000000000000000000000000000000000000000000000000000000600052603260045260246000fd5b9060005260206000209060070201600101541480156137915750600073ffffffffffffffffffffffffffffffffffffffff16600a8281548110613747577f4e487b7100000000000000000000000000000000000000000000000000000000600052603260045260246000fd5b906000526020600020906007020160050160009054906101000a900473ffffffffffffffffffffffffffffffffffffffff1673ffffffffffffffffffffffffffffffffffffffff16145b80156137e7575042600a82815481106137d3577f4e487b7100000000000000000000000000000000000000000000000000000000600052603260045260246000fd5b906000526020600020906007020160030154105b15613886576001600a8281548110613828577f4e487b7100000000000000000000000000000000000000000000000000000000600052603260045260246000fd5b906000526020600020906007020160060160146101000a81548160ff02191690831515021790555060006010600085815260200190815260200160002060006101000a81548160ff021916908315150217905550600191505061389f565b808061389190614483565b915050613698565b60009150505b919050565b60003373ffffffffffffffffffffffffffffffffffffffff166138c6836132c3565b73ffffffffffffffffffffffffffffffffffffffff1614156139685760006007600084815260200190815260200160002054148015613951575081600460008154811061393c577f4e487b7100000000000000000000000000000000000000000000000000000000600052603260045260246000fd5b90600052602060002090600402016000015414155b1561395f576000905061396d565b6001905061396d565b600090505b919050565b604051806080016040528060008152602001600073ffffffffffffffffffffffffffffffffffffffff16815260200160008152602001606081525090565b6040518061010001604052806000815260200160008152602001600081526020016000815260200160008152602001600073ffffffffffffffffffffffffffffffffffffffff168152602001600073ffffffffffffffffffffffffffffffffffffffff1681526020016000151581525090565b828054613a2f906144ad565b90600052602060002090601f016020900481019282613a515760008555613a98565b82601f10613a6a57805160ff1916838001178555613a98565b82800160010185558215613a98579182015b82811115613a97578251825591602001919060010190613a7c565b5b509050613aa59190613aa9565b5090565b5b80821115613ac2576000816000905550600101613aaa565b5090565b6000613ad9613ad484614254565b61422f565b905082815260208101848484011115613af157600080fd5b613afc848285614441565b509392505050565b600081359050613b13816145f7565b92915050565b600081359050613b288161460e565b92915050565b600082601f830112613b3f57600080fd5b8135613b4f848260208601613ac6565b91505092915050565b600081359050613b6781614625565b92915050565b600060208284031215613b7f57600080fd5b6000613b8d84828501613b04565b91505092915050565b60008060408385031215613ba957600080fd5b6000613bb785828601613b19565b9250506020613bc885828601613b58565b9150509250929050565b600060208284031215613be457600080fd5b600082013567ffffffffffffffff811115613bfe57600080fd5b613c0a84828501613b2e565b91505092915050565b600060208284031215613c2557600080fd5b6000613c3384828501613b58565b91505092915050565b60008060408385031215613c4f57600080fd5b6000613c5d85828601613b58565b9250506020613c6e85828601613b58565b9150509250929050565b600080600060608486031215613c8d57600080fd5b6000613c9b86828701613b58565b9350506020613cac86828701613b58565b9250506040613cbd86828701613b58565b9150509250925092565b6000613cd38383613d2a565b60208301905092915050565b6000613ceb8383613f09565b6101008301905092915050565b6000613d048383613fab565b905092915050565b613d15816143f9565b82525050565b613d24816143f9565b82525050565b613d33816143e7565b82525050565b613d42816143e7565b82525050565b6000613d53826142b5565b613d5d8185614308565b9350613d6883614285565b8060005b83811015613d99578151613d808882613cc7565b9750613d8b836142e1565b925050600181019050613d6c565b5085935050505092915050565b6000613db1826142c0565b613dbb8185614319565b9350613dc683614295565b8060005b83811015613df7578151613dde8882613cdf565b9750613de9836142ee565b925050600181019050613dca565b5085935050505092915050565b6000613e0f826142cb565b613e19818561432a565b935083602082028501613e2b856142a5565b8060005b85811015613e675784840389528151613e488582613cf8565b9450613e53836142fb565b925060208a01995050600181019050613e2f565b50829750879550505050505092915050565b613e828161440b565b82525050565b613e918161440b565b82525050565b6000613ea2826142d6565b613eac818561433b565b9350613ebc818560208601614450565b613ec5816145e6565b840191505092915050565b6000613edb826142d6565b613ee5818561434c565b9350613ef5818560208601614450565b613efe816145e6565b840191505092915050565b61010082016000820151613f20600085018261400e565b506020820151613f33602085018261400e565b506040820151613f46604085018261400e565b506060820151613f59606085018261400e565b506080820151613f6c608085018261400e565b5060a0820151613f7f60a0850182613d0c565b5060c0820151613f9260c0850182613d0c565b5060e0820151613fa560e0850182613e79565b50505050565b6000608083016000830151613fc3600086018261400e565b506020830151613fd66020860182613d2a565b506040830151613fe9604086018261400e565b50606083015184820360608601526140018282613e97565b9150508091505092915050565b61401781614437565b82525050565b61402681614437565b82525050565b60006020820190506140416000830184613d39565b92915050565b600060208201905061405c6000830184613d1b565b92915050565b6000602082019050818103600083015261407c8184613d48565b905092915050565b6000602082019050818103600083015261409e8184613da6565b905092915050565b600060208201905081810360008301526140c08184613e04565b905092915050565b60006020820190506140dd6000830184613e88565b92915050565b600060208201905081810360008301526140fd8184613ed0565b905092915050565b600060208201905061411a600083018461401d565b92915050565b6000608082019050614135600083018761401d565b6141426020830186613d39565b61414f604083018561401d565b81810360608301526141618184613ed0565b905095945050505050565b6000608082019050614181600083018761401d565b61418e602083018661401d565b61419b604083018561401d565b6141a8606083018461401d565b95945050505050565b6000610100820190506141c7600083018b61401d565b6141d4602083018a61401d565b6141e1604083018961401d565b6141ee606083018861401d565b6141fb608083018761401d565b61420860a0830186613d1b565b61421560c0830185613d1b565b61422260e0830184613e88565b9998505050505050505050565b600061423961424a565b905061424582826144df565b919050565b6000604051905090565b600067ffffffffffffffff82111561426f5761426e6145b7565b5b614278826145e6565b9050602081019050919050565b6000819050602082019050919050565b6000819050602082019050919050565b6000819050602082019050919050565b600081519050919050565b600081519050919050565b600081519050919050565b600081519050919050565b6000602082019050919050565b6000602082019050919050565b6000602082019050919050565b600082825260208201905092915050565b600082825260208201905092915050565b600082825260208201905092915050565b600082825260208201905092915050565b600082825260208201905092915050565b600061436882614437565b915061437383614437565b9250827fffffffffffffffffffffffffffffffffffffffffffffffffffffffffffffffff038211156143a8576143a7614559565b5b828201905092915050565b60006143be82614437565b91506143c983614437565b9250828210156143dc576143db614559565b5b828203905092915050565b60006143f282614417565b9050919050565b600061440482614417565b9050919050565b60008115159050919050565b600073ffffffffffffffffffffffffffffffffffffffff82169050919050565b6000819050919050565b82818337600083830152505050565b60005b8381101561446e578082015181840152602081019050614453565b8381111561447d576000848401525b50505050565b600061448e82614437565b915060008214156144a2576144a1614559565b5b600182039050919050565b600060028204905060018216806144c557607f821691505b602082108114156144d9576144d8614588565b5b50919050565b6144e8826145e6565b810181811067ffffffffffffffff82111715614507576145066145b7565b5b80604052505050565b600061451b82614437565b91507fffffffffffffffffffffffffffffffffffffffffffffffffffffffffffffffff82141561454e5761454d614559565b5b600182019050919050565b7f4e487b7100000000000000000000000000000000000000000000000000000000600052601160045260246000fd5b7f4e487b7100000000000000000000000000000000000000000000000000000000600052602260045260246000fd5b7f4e487b7100000000000000000000000000000000000000000000000000000000600052604160045260246000fd5b6000601f19601f8301169050919050565b614600816143e7565b811461460b57600080fd5b50565b614617816143f9565b811461462257600080fd5b50565b61462e81614437565b811461463957600080fd5b5056fea26469706673582212205ba430e1e6aa3eb03af4bcfe62c81a53ad806fb7859502b7063abaa8e01532f464736f6c63430008010033",
  "immutableReferences": {},
  "source": "pragma solidity ^0.8.0;\n\ncontract Auction{\n\n    uint public createNFTFee = 0.1 ether;\n    uint public NFTCount = 0;\n    \n    address payable public manager;\n    uint public balance;\n    \n    struct NFT{\n        uint token_id;      //ID\n        address maker;      //\n        uint createTime;    //\n        string URL;\n    }\n    \n    NFT[] public nft;\n    \n    mapping(uint => address) public NFTOwner;       //iNFT uinttoken_idnft\n    mapping(address => uint) public ownNFTCount;    //NFT\n    mapping(uint => uint) token2num;                //token_idnft\n    mapping(address => uint) madeByMe;              //NFT\n    \n    \n    uint auctionFee = 0.1 ether;\n    \n    struct AUC{\n        uint Auc_id;                //ID\n        uint NFT_token_id;          //NFTID\n        uint startTime;             //\n        uint endTime;               //\n        uint bid;                   //\n        address payable receiver;   //\n        address payable sender;     //\n        bool isclaim;               //\n    }\n    \n    AUC[] public Auc;   //\n    \n    mapping(uint => uint) public getAucNum;     //ID->Auc\n    mapping(uint => uint) public transferTime;  //NFT\n    mapping(address => uint) bought;            //NFT\n    mapping(address => uint) unclaim;           //NFT\n    mapping(address => uint) myAuc;             //\n    mapping(uint => bool) inAuc;                //\n\n\n    event newNFT(uint token_id);\n\n    function getContractBalance() public returns(uint) {\n        manager=payable(address(this));\n        balance=address(this).balance;\n        return address(this).balance;\n    }\n    \n    function transderToContract() payable public {\n        payable(address(this)).transfer(msg.value);\n    }\n    \n    fallback() external payable {}\n    \n    receive() external payable {}\n    \n    //NFT  md5md5token_id\n    function createNFT(string memory content) public payable returns(bool){\n        require(msg.value==0.1 ether);  //0.1 ether\n        uint token_id=uint(keccak256(abi.encode(content)));\n        require(isExist(token_id)==false);\n\n        bool rst=false;\n        if(isExist(token_id)){\n            return rst;\n        }\n        \n        nft.push(NFT(token_id,msg.sender,block.timestamp,\"0\")); //nft\n\n        //\n        uint id=nft.length-1;\n        NFTOwner[id]=msg.sender;\n        ownNFTCount[msg.sender]++;\n        token2num[token_id]=id;\n        madeByMe[msg.sender]++;\n        NFTCount++;\n        rst=true;\n        emit newNFT(token_id);\n\n        return rst;\n    }\n    \n    //NFT\n    function getNFTByOwner(address _owner) external view returns(NFT[] memory){\n        NFT[] memory rst=new NFT[](ownNFTCount[_owner]);\n        uint counter=0;\n        \n        for(uint i=0;i<nft.length;i++){\n            if(NFTOwner[i]==_owner){\n                rst[counter]=nft[i];\n                counter++;\n            }\n        }\n        return rst;\n    }\n\n    //token_id\n    function getNFTOwnerByID(uint token_id) public view returns(address){\n        address rst;\n        rst=NFTOwner[token2num[token_id]];\n        return rst;\n    }\n    \n    //msg.sendertoken_idNFT\n    function isOwnerof(uint token_id) internal view returns(bool){\n        if(getNFTOwnerByID(token_id)==msg.sender){\n            if(token2num[token_id]==0&&nft[0].token_id!=token_id){\n                return false;\n            }\n            return true;\n        }\n        return false;\n    }\n\n    //msg.senderNFT\n    function getNFTBought(address _owner) external view returns(NFT[] memory){\n        NFT[] memory rst=new NFT[](bought[_owner]);\n        uint counter=0;\n        \n        for(uint i=0;i<nft.length;i++){\n            if(NFTOwner[i]==_owner&&nft[i].maker!=msg.sender){\n                rst[counter]=nft[i];\n                counter++;\n            }\n        }\n        return rst;\n    }\n    \n    //msg.senderNFT\n    function getNFTMadeByMe() public view returns(NFT[] memory){\n        NFT[] memory rst=new NFT[](madeByMe[msg.sender]);\n        uint counter=0;\n        \n        for(uint i=0;i<nft.length;i++){\n            if(nft[i].maker==msg.sender){\n                rst[counter]=nft[i];\n                counter++;\n            }\n        }\n        return rst;\n    }\n    \n    //NFT\n    function isExist(uint _token_id) public view returns(bool){\n        for(uint i=0;i<nft.length;i++){\n            if(_token_id==nft[i].token_id){\n                return true;\n            }\n        }\n        \n        return false;\n    }\n    \n    //NFT\n    function examineInAuc(uint token_id) internal returns(bool){\n        uint i;\n        \n        if(inAuc[token_id]==false){\n            return true;\n        }\n        else{\n            for(i=Auc.length-1;i>=0;i--){\n                //NFT\n                if(Auc[i].NFT_token_id==token_id&&Auc[i].receiver==payable(0)&&Auc[i].endTime<block.timestamp){\n                    Auc[i].isclaim=true;\n                    inAuc[token_id]=false;\n                    return true;\n                }\n            }\n            return false;\n        }\n        \n    }\n\n    //msg.sender\n    function myAuction() public view returns(AUC[] memory){\n        AUC[] memory rst= new AUC[](myAuc[msg.sender]);\n        uint counter=0;\n        \n        for(uint i=0;i<Auc.length;i++){\n            if(Auc[i].sender==msg.sender){\n                rst[counter]=Auc[i];\n                counter++;\n            }\n        }\n        \n        return rst;\n    }\n    \n    //\n    function setupAuction(uint _NFT_token_id,uint _endTime,uint _startPrice) public payable{\n        require(examineInAuc(_NFT_token_id)==true);     //NFT\n        require(isOwnerof(_NFT_token_id)==true);        //NFT\n        require(ownNFTCount[msg.sender]>0);             //NFT\n        require(_endTime>block.timestamp);              //\n        \n        uint startTime=block.timestamp;\n\n        //ID\n        uint Auc_id=uint(keccak256(abi.encode(block.timestamp,startTime,_endTime,_NFT_token_id)));\n        Auc.push(AUC(Auc_id,_NFT_token_id,startTime,_endTime,_startPrice,payable(0),payable(msg.sender),false));\n        uint i=Auc.length-1;\n        getAucNum[Auc_id]=i;\n        inAuc[_NFT_token_id]=true;\n        myAuc[msg.sender]++;\n        \n        if(bought[msg.sender]>0&&nft[token2num[_NFT_token_id]].maker!=msg.sender){\n            bought[msg.sender]--;\n        }\n        \n    }\n    \n    //NFT\n    function Belong(uint _NFT_id) public view returns(address[] memory){\n        address[] memory rst=new address[](transferTime[_NFT_id]+1);\n        uint counter=0;\n        \n        for(uint i=0;i<Auc.length;i++){\n            if(Auc[i].NFT_token_id==_NFT_id){\n                rst[counter]=Auc[i].sender;\n                counter++;\n            }\n        }\n        rst[counter]=NFTOwner[token2num[_NFT_id]];\n        \n        return rst;\n    }\n    \n    //msg.senderNFT\n    function getUnclaim() public view returns(AUC[] memory){\n        AUC[] memory rst= new AUC[](unclaim[msg.sender]);\n        uint counter=0;\n        \n        for(uint i=0;i<Auc.length;i++){\n            if(Auc[i].receiver==msg.sender&&Auc[i].isclaim==false&&block.timestamp>=Auc[i].endTime){\n                rst[counter]=Auc[i];\n                counter++;\n            }\n        }\n        \n        return rst;\n    }\n    //\n    function getAuction() public view returns(AUC[] memory){\n        AUC[] memory rst= new AUC[](Auc.length);\n        uint counter=0;\n        \n        for(uint i=0;i<Auc.length;i++){\n            if(block.timestamp<Auc[i].endTime){\n                rst[counter]=Auc[i];\n                counter++;\n            }\n        }\n        \n        return rst;\n    }\n    \n    //msg.sender\n    function myNFTInAuction() public view returns(AUC[] memory){\n        AUC[] memory rst= new AUC[](Auc.length);\n        uint counter=0;\n        \n        for(uint i=0;i<Auc.length;i++){\n            if(block.timestamp<Auc[i].endTime&&Auc[i].sender==msg.sender){\n                rst[counter]=Auc[i];\n                counter++;\n            }\n        }\n        \n        return rst;\n    }\n    \n    //NFT\n    function claim(uint _Auc_id) public payable{\n        uint Anum=getAucNum[_Auc_id];\n        require(msg.value==Auc[Anum].bid);              //\n        require(msg.sender==Auc[Anum].receiver);        //\n        require(block.timestamp>=Auc[Anum].endTime);    //\n        require(Auc[Anum].isclaim==false);              //\n        \n        uint NFTnum=token2num[Auc[Anum].NFT_token_id];\n        ownNFTCount[NFTOwner[NFTnum]]--;\n        NFTOwner[NFTnum]=msg.sender;\n        bought[msg.sender]++;\n        ownNFTCount[NFTOwner[NFTnum]]++;\n        Auc[Anum].isclaim=true;\n        unclaim[msg.sender]--;\n        transferTime[Auc[Anum].NFT_token_id]++;\n        \n        inAuc[Auc[Anum].NFT_token_id]=false;\n        \n        address payable sender=Auc[Anum].sender;\n        \n        transferEther(sender,Auc[Anum].bid);\n    }\n    \n    //\n    function transferEther(address payable to,uint value) public payable{\n        to.transfer(value);\n    }\n    \n    //\n    function bid(uint _Auc_id,uint price) public payable {\n        uint Anum=getAucNum[_Auc_id];\n        require(price>Auc[Anum].bid);                   //\n        require(msg.sender!=Auc[Anum].sender);          //\n        require(Auc[Anum].isclaim==false);              //NFT\n        require(Auc[Anum].endTime>block.timestamp);     //\n        \n        if(Auc[Anum].receiver!=address(0)){\n            unclaim[Auc[Anum].receiver]--;\n        }\n        \n        unclaim[msg.sender]++;\n        \n        Auc[Anum].bid=price;\n        Auc[Anum].receiver=payable(msg.sender);\n    }\n}",
  "sourcePath": "D:\\\\\\\\project\\MYNFT\\contracts\\Auction.sol",
  "compiler": {
    "name": "solc",
    "version": "0.8.1+commit.df193b15.Emscripten.clang"
  },
  "schemaVersion": "3.4.3",
  "updatedAt": "2021-11-04T04:02:42.365Z",
  "networkType": "ethereum",
  "devdoc": {
    "kind": "dev",
    "methods": {},
    "version": 1
  },
  "userdoc": {
    "kind": "user",
    "methods": {},
    "version": 1
  }
}